:1000000081310329013400347E14803120007F08BF
:10001000FB002100131C5C282000131C5C2813101B
:100020007108803AFA0080307A02031D1928E03006
:100030007002031C4B2820008C110C114730FA0071
:100040007A082100A9003030FA007A08AA0030307E
:10005000FA007A08AB003330FA007A08AC00A93015
:100060008E31EB268031280013104730FA007A08D1
:100070002100AD003030FA007A08AE003030FA00CE
:100080007A08AF003430FA007A08B000AD308E3113
:10009000EB2680315C2821006808690403195C287C
:1000A0007008013EF0000030713DF1000B30280077
:1000B0009200DC30910013142100111CAE282000A6
:1000C000111CAE2811107308803AFA0080307A02B1
:1000D000031D6C287D307202031C9E2825008C10A5
:1000E0000C104730FA007A082100A1003030FA00E5
:1000F0007A08A2003030FA007A08A3003130FA0002
:100100007A08A400A1308E31EB268031200018102F
:100110004730FA007A082100A5003030FA007A084A
:10012000A6003030FA007A08A7003230FA007A08C8
:10013000A800A5308E31EB268031AE28200059086A
:100140005A040319AE287208013EF2000030733DD4
:10015000F3000B309700DC30960018142000911E3D
:10016000FE2823009D1CBF281D121D162000111EF5
:10017000B628463023009A002000111EBC28230018
:100180001908FA007408443E8600013087007A0896
:100190008100253022004406031DE7280130F407C2
:1001A0000030F53D7508803AFA0080307A02031D70
:1001B000DB2810307402031CFE28F401F501013025
:1001C0002100DA000030DB0020009112FE28F4014B
:1001D000F50123001D121D162000111EEC284630CB
:1001E00023009A002000111EF228523023009A00AA
:1001F0002000111EF828523023009A007B082000AE
:10020000FF007E10090081310529803102208131F3
:10021000DB00803103208131DC00513084008F30DD
:100220008500A03086000030870032308E31A52650
:100230008131913084008730850020308600013084
:10024000870048308E31A5268131C03084008F3040
:100250008500A03086000130870040308E31A52611
:100260008131F001F101F201F301F401F5014D30AA
:100270008400003085000E308E319F268131D230CF
:1002800084000030850018308E319F267E102000BB
:1002900081314A2929302000C8009630C7007F30BC
:1002A000890B5029C70B5029C80B50292400A001E5
:1002B000A101A201A301A401A501A601A701A80112
:1002C000A901AA01AB01B001B101AC01AD01AE01C0
:1002D000AF01B201B3018F31202781318731F62779
:1002E000813125008C100C1020008C110C11013074
:1002F000D3000030D4000130D1000030D2000130F2
:10030000CF000030D0000130CD000030CE002530CD
:10031000C70047082100A00040302000C700470860
:100320002100AA0021005A035B04031D022BDA01FD
:10033000DB012400B001B101B201B301253022007C
:100340004406031D592A25304506031D592A40300D
:100350005206031D592A40305306031D592A200016
:10036000D701D8015808803AC70080304702031DE2
:10037000BB29103057020318AC2A20005708443E0E
:1003800086000130870025300106031DE329570848
:10039000013E443E86000130870025300106031DE2
:1003A000E329240030083104031DE3292000580804
:1003B0002400A900200057082400A8000130B00044
:1003C0000030B100532A20005708443E8600013017
:1003D000870025300106031D052A5708013E443ECB
:1003E00086000130870025300106031D052A240000
:1003F00030033104031D052A200058082400AB00F7
:10040000200057082400AA00532A20005708443E21
:1004100086000130870040300106031D2C2A570852
:10042000013E443E86000130870040300106031D36
:100430002C2A240032083304031D2C2A20005808DB
:100440002400AD00200057082400AC000130B200A9
:100450000030B30001304E2A20005708443E860089
:100460000130870040300106031D532A5708013E22
:10047000443E86000130870040300106031D532AA8
:10048000240032033304031D532A2000580824009B
:10049000AF00200057082400AE0002302000D50035
:1004A0000030D600AC2A01302000D7070030D83DFC
:1004B000B22934302000C700F130890B5D2AC70B08
:1004C0005D2A0032503023009A0006302000C70019
:1004D0003030890B692AC70B692A00004B30230092
:1004E0009A0006302000C7003030890B752AC70BF0
:1004F000752A0000F401F50123009D139D172100CA
:10050000D201D3012000D701D8015808803AC70092
:1005100080304702031D8E2A0F3057020318A92A84
:1005200023302000C7005708443E86000130870072
:10053000470881000130D7070030D83D5808803A7D
:10054000C70080304702031DA72A0F305702031C43
:10055000902A2000D501D601200055035604031D22
:10056000C02A240029082000A10024002808200017
:10057000A00024002D082000A30024002C08D42A69
:100580000230200055065604031D022B24002B08C0
:100590002000A10024002A082000A00024002F0829
:1005A0002000A30024002E082000A2008F31832702
:1005B0008131220023082000C7004708AE00220036
:1005C00024082000C8004808AF00220025082000A9
:1005D000C9004908B000220026082000CA004A08C5
:1005E000B100220027082000CB004B08B2002200F7
:1005F00028082000CC004C08B300220022088531D6
:1006000076258131230022082304031D3E2B25007B
:100610008C1B3E2B200053085404031D3E2B5B0310
:100620005C04031D362B5230C70047082100A1008F
:1006300030302000C70047082100A20030302000E1
:10064000C70047082100A30031302000C700470839
:100650002100A400A1308731D927813125000C1059
:100660008C102000D901DA01F201F3010130D3002E
:100670000030D4000130DB000030DC002300220811
:100680002304031D9D2B25008C1F9D2B200053034D
:100690005404031D9D2B5B035C04031D972B5230F8
:1006A000C70047082100A50030302000C7004708D8
:1006B0002100A60030302000C70047082100A70015
:1006C00032302000C70047082100A800A53087313C
:1006D000D927813125000C1052302000C70047086F
:1006E0002100A10031302000C70047082100A200EE
:1006F00030302000C70047082100A300313020001F
:10070000C70047082100A400A1308731D9278131D3
:1007100025008C1401302000D9000030DA00F201ED
:10072000F3010B309700DC30960011101814D30140
:10073000D4010130DB000030DC0023002608270450
:10074000031DD92B25008C1AD92B200051085204E7
:10075000031DD92B5B035C04031DD12B5230C70052
:1007600047082100A50030302000C70047082100BD
:10077000A60030302000C70047082100A700323013
:100780002000C70047082100A800A5308731D927DD
:10079000813125000C108C102000D901DA01F20102
:1007A000F3010130D1000030D2000130DB00003015
:1007B000DC00230026082704031D382C25008C1E8E
:1007C000382C200051035204031D382C5B035C04B9
:1007D000031D322C5230C70047082100A1003030E1
:1007E0002000C70047082100A20030302000C700C9
:1007F00047082100A30031302000C700470821002E
:10080000A400A1308731D927813125008C105230C6
:100810002000C70047082100A50031302000C70094
:1008200047082100A60030302000C70047082100FB
:10083000A70032302000C70047082100A800A530DB
:100840008731D927813125000C1401302000D900CF
:100850000030DA00F201F3010B309700DC30960033
:1008600011101814D101D2010130DB000030DC007E
:1008700023002A082B04031D752C25008C19752CC8
:1008800020004F085004031D752C5B035C04031DFE
:100890006C2C5230C70047082100A90030302000DE
:1008A000C70047082100AA0030302000C7004708D1
:1008B0002100AB0033302000C70047082100AC0006
:1008C000A9308731D927813120000C118C112100EA
:1008D000E801E901F001F10101302000CF00003012
:1008E000D0000130DB000030DC0023002A082B049C
:1008F000031DD72C25008C1DD72C20004F0350043E
:10090000031DD72C5B035C04031DD02C5230C700A1
:1009100047082100AD0030302000C7004708210003
:10092000AE0030302000C70047082100AF0034304F
:100930002000C70047082100B000AD308731D9271B
:10094000813120000C115230C70047082100A90056
:1009500031302000C70047082100AA0030302000B5
:10096000C70047082100AB0033302000C70047080C
:100970002100AC00A9308731D927813120008C15A6
:1009800001302100E8000030E900F001F1010B30F6
:1009900028009200DC30910020001310280013146E
:1009A0002000CF01D0010130DB000030DC0023004B
:1009B0002E082F04031D142D25000C19142D2000C2
:1009C0004D084E04031D142D5B035C04031D0B2D09
:1009D0005230C70047082100AD0030302000C7006A
:1009E00047082100AE0030302000C7004708210032
:1009F000AF0034302000C70047082100B000AD3000
:100A00008731D927813120000C118C112100E80198
:100A1000E901F001F10101302000CD000030CE00ED
:100A20000130DB000030DC0023002E082F04031D02
:100A3000922925000C1D922920004D034E04031D10
:100A400092295B035C04031D6E2D5230C7004708DA
:100A50002100A90030302000C70047082100AA006B
:100A600030302000C70047082100AB0033302000A1
:100A7000C70047082100AC00A9308731D927813150
:100A800020008C115230C70047082100AD003130E2
:100A90002000C70047082100AE0030302000C7000A
:100AA00047082100AF0034302000C700470821006C
:100AB000B000AD308731D927813120000C150130CD
:100AC0002100E8000030E900F001F1010B302000C6
:100AD0009700DC3096001310280013142000CD017D
:100AE000CE010130DB000030DC0092292000BC0088
:100AF000C301C401C501C601C101C20154302E06A3
:100B00000319112FB601B7012F08D03EC500FF30E1
:100B100003180030C6003C08B4003408BF002E089B
:100B2000B4003408C0003F308731262785312000CB
:100B30002708C2002608C1003008B4003408BD00F0
:100B40003108B4003408BE003D3087312627853196
:100B500020002708B7002608B6003208D03EB800AB
:100B6000FF3003180030B9004208B5004108B40056
:100B7000B435B50D3408FF3EBA00FF30353DBB003B
:100B80003A35A03E8600013087003808C03F39085A
:100B9000C13F4208B5004108B400B435B50DB435C5
:100BA000B50D3408FD3EC300FF30353DC40047306D
:100BB000B4004308A03E860087013408810001305C
:100BC000C3070030C43D2F08B4004308A03E860090
:100BD0008701340881000130C3070030C43D3C0860
:100BE000B4004308A03E860087013408810001302C
:100BF000C3070030C43D2E08B4004308A03E860061
:100C0000870134088100FD30C307FF30C43D313017
:100C10003306031D102E4308A03E8731D9278531A6
:100C20002000DB01DC01112F4608D4004508D30069
:100C300045034604031D492E25000C1047302000B3
:100C4000B40034082100A50030302000B40034087E
:100C50002100A60030302000B40034082100A70095
:100C600032302000B40034082100A800A5308731BC
:100C7000D92725008C1401302000D9000030DA007B
:100C8000F201F3010B309700DC30960011101814BC
:100C9000080025000C108C1020001810D901DA0172
:100CA000F201F30108004608D2004508D1004503CF
:100CB0004604031D882E25008C1047302000B40008
:100CC00034082100A10030302000B4003408210095
:100CD000A20030302000B40034082100A3003130DD
:100CE0002000B40034082100A400A1308731D927A6
:100CF00025000C1401302000D9000030DA00F20188
:100D0000F3010B309700DC30960011101814080026
:100D100025000C108C1020001810D901DA01F20106
:100D2000F30108004608D0004508CF0045034604FB
:100D3000031DC82E0C114730B40034082100AD004B
:100D400030302000B40034082100AE0030302000E4
:100D5000B40034082100AF0034302000B40034085F
:100D60002100B000AD308731D92720008C1501302B
:100D70002100E8000030E900F001F1010B3028000B
:100D80009200DC309100200013102800131408009A
:100D90000C118C1118102100E801E901F001F1019A
:100DA000080020004608CE004508CD004503460453
:100DB000031D072F8C114730B40034082100A9000F
:100DC00030302000B40034082100AA003030200068
:100DD000B40034082100AB0033302000B4003408E4
:100DE0002100AC00A9308731D92720000C15013033
:100DF0002100E8000030E900F001F1010B30200093
:100E00009700DC30960013102800131408000C1112
:100E10008C11280013102100E801E901F001F10113
:100E2000080020004208003A0319172F252F410817
:100E3000013A0319142E033A0319532E013A0319E8
:100E4000922E073A0319D12E252F08002000AD005D
:100E50002D088600870120300106031D342F013044
:100E6000A8002808AD07282F2D0886008701093023
:100E7000010603192F2FAB01AC01AA012D08860032
:100E800087012D300106031D4A2F0130A8002808D4
:100E9000AA07512F2D08860087012B300106031D5C
:100EA000552F0130A8002808AD072D0886008701BE
:100EB00001088E31B7268731031C7C2F20002C08B7
:100EC000A1002B08A0000A30A2000030A3008F313F
:100ED0000427873120002D0886008701010820079C
:100EE000A80021080318210AA9002808D03EAB0059
:100EF000FF30293DAC00512F20002A0803198C2F08
:100F00002B09A8002C09A900A80A0319A90A280876
:100F1000A6002908A70008002C08A7002B08A60097
:100F20000800243400340034003400340034003429
:100F30000034003400340034003400340034003411
:100F40000034003400340034003400340034003401
:100F500000340034003400340034003400340034F1
:100F60000034003400340034003461340034003480
:100F700000340034003400340034003400340034D1
:100F800000340034003400340034003400340034C1
:100F900000340034003400340034003400340034B1
:100FA00000340034003400340034003400340034A1
:100FB00000342000A300A101A20104302106220474
:100FC0000319080023009E1CE22F2000230886003E
:100FD0008701010823009A0001302000A0002008AA
:100FE000A3070130A1070030A23DDD2F8E31D526A9
:0E0FF00087318E31AB2687318E31C626080040
:101D3E00640080010131890BA02E0034FE001200D8
:101D4E001E00FE0BA62E00343030200098009901A4
:101D5E00970196011110210011142000181408008B
:101D6E002000A100A0013A3021020318C42E303009
:101D7E002102031CC42EA001A00A200C0800303042
:101D8E00280093009401920191012000131021006C
:101D9E001314200018148B170B1708002100911232
:101DAE0011120A3023009F0090309D0024309E00B7
:101DBE00A0309B0001309C008B170B172100911651
:101DCE0023009E169D170800F700F801F901043054
:101DDE00780679040319080023009E1CF32E770859
:101DEE008600870101089A000130F6007608F70791
:101DFE000130F8070030F93DEE2E2000A401A501B8
:101E0E00201C0D2F2208A4072308A53D0130A23562
:101E1E00A30D890B0E2F0130A136A00C890B132FA9
:101E2E0020082104031D072F2508A1002408A00067
:101E3E00080028008D0129008D0128008C01260044
:101E4E000C108C100C158C150C168C160C178C1780
:101E5E00240090012300900121009015901224007F
:101E6E008F0123008F01FF3021008F000E108E1086
:101E7E0023008D0121008D108D1124008D01230072
:101E8E008C0121000C108C100C118C118C160E1361
:101E9E008E17080054345434543454345434543457
:101EAE0054345434543454345434543454345434E4
:101EBE0054345434543454345434543454345434D4
:101ECE0054345434543454345434543454345434C4
:101EDE0054345434543454345434543454345434B4
:101EEE005434543454340034003400340034003448
:101EFE0000340034003400342100D201D30120001C
:101F0E002108D8002008D7005808803AA4002308DA
:101F1E00803A2402031D952F220857020318BC2F66
:101F2E0020005708443E8600013087000108A400B7
:101F3E0021005208203E8600013087002000240830
:101F4E00810001302100D2070030D33D2330200024
:101F5E00A4005708443E8600013087002408810003
:101F6E000130D7070030D83D8B2F2000D501D60188
:101F7E00080000349034003400340034003400344F
:101F8E0000340034003400340034003400340034A3
:101F9E000034003400340034003400340034003493
:101FAE000034003400340034003400340034003483
:101FBE000034003400340034003400340034003473
:101FCE000034003400340034003400340034003463
:101FDE000034003400340034003400340034003453
:101FEE000034003400340034003400340034003443
:101FFE0000343034303430343034303430343034E3
:10200E0030343034303430343034303430343034A2
:10201E003034303430343034303430343034303492
:10202E003034303430343034303430343034303482
:04203E003034003406
:020000040001F9
:04000E00A2C9FFDDA7
:00000001FF
