:040000008031AF2874
:100008007E14803120007F08FB002100111C5B2832
:100018002000111C5B2811107108803AFA0080300A
:100028007A02031D19286C307002031C4B28250026
:100038008C100C104730FA007A082100A1003030EB
:10004800FA007A08A2003030FA007A08A3003130AA
:10005800FA007A08A400A1308631E9268031200010
:1000680018104730FA007A082100A5003030FA004D
:100078007A08A6003030FA007A08A7003230FA0071
:100088007A08A800A5308631E92680315B287408F3
:10009800750403195B287008013EF0000030713DBB
:1000A800F1000B3020009700DC3096001814200077
:1000B800911EAA2823009D1C6C281D121D162000C5
:1000C800111E6328463023009A002000111E69285B
:1000D80023001908FA007208443E860001308700A0
:1000E8007A088100253022004406031D9328013038
:1000F800F2070030F33D7308803AFA0080307A0244
:10010800031D882810307202031CAA28F201F3018B
:1001180001302000D7000030D8009112AA28F2013F
:10012800F30123001D121D162000111E98284630C9
:1001380023009A002000111E9E28523023009A00A6
:100148002000111EA428523023009A007B082000AA
:10015800FF007E1009008031B12887315727803190
:10016800DB00873158278031DC0039308400863045
:100178008500A030860000308700323087314B2759
:100188008031793084008530850020308600013048
:100198008700483087314B278031C1308400853053
:1001A8008500A030860001308700403087314B271A
:1001B8008031F001F101F201F301F401F5014D3054
:1001C8008400003085000E30873151278031D230CD
:1001D8008400003085001830873151277E102000B8
:1001E8008031F62829302000C8009630C7007F30BB
:1001F800890BFC28C70BFC28C80BFC282400A0018D
:10020800A101A201A301A401A501A601A701A801BA
:10021800A901AA01AB01B001B101AC01AD01AE0168
:10022800AF01B201B30186316B2680318731422795
:10023800803125008C100C1001302000CF000030D8
:10024800D0000130CD000030CE0001302100D600B2
:100258000030D7000130D4000030D5002530200010
:10026800C70047082100A00040302000C700470809
:100278002100AA00200057035804031DAD2AD70106
:10028800D8012400B001B101B201B3012530220028
:100298004406031D052A25304506031D052A40305E
:1002A8005206031D052A40305306031D052A200067
:1002B800D501D6015608803AC70080304702031D91
:1002C8006729103055020318572A20005508443E64
:1002D80086000130870025300106031D8F29550847
:1002E800013E443E86000130870025300106031D8B
:1002F8008F29240030083104031D8F292000560857
:100308002400A900200055082400A8000130B000EE
:100318000030B100FF2920005508443E8600013016
:10032800870025300106031DB1295508013E443ECA
:1003380086000130870025300106031DB1292400FD
:1003480030033104031DB129200056082400AB00F6
:10035800200055082400AA00FF2920005508443E23
:1003680086000130870040300106031DD829550852
:10037800013E443E86000130870040300106031DDF
:10038800D829240032083304031DD8292000560830
:100398002400AD00200055082400AC000130B20054
:1003A8000030B3000130FA2920005508443E860089
:1003B8000130870040300106031DFF295508013E22
:1003C800443E86000130870040300106031DFF29A6
:1003D800240032033304031DFF292000560824009B
:1003E800AF00200055082400AE0002302000D100E4
:1003F8000030D200572A01302000D5070030D63D02
:100408005E2934302000C700F130890B092AC70B58
:10041800092A0032503023009A0006302000C70015
:100428003030890B152AC70B152A00004B302300E2
:100438009A0006302000C7003030890B212AC70BEC
:10044800212A0000F201F30123009D139D172000CB
:10045800D301D401D501D6015608803AC7008030AF
:100468004702031D392A0F3055020318542A233036
:100478002000C7005508443E860001308700470821
:1004880081000130D5070030D63D5608803AC700B4
:1004980080304702031D522A0F305502031C3B2AA5
:1004A8002000D101D201200051035204031D6B2A00
:1004B800240029082000A100240028082000A0000A
:1004C80024002D082000A30024002C087F2A0230D5
:1004D800200051065204031DAD2A24002B082000D9
:1004E800A10024002A082000A00024002F082000D2
:1004F800A30024002E082000A200863101268031A6
:10050800220023082000C7004708AE002200240864
:100518002000C8004808AF00220025082000C900B4
:100528004908B000220026082000CA004A08B10085
:10053800220027082000CB004B08B2002200280820
:100548002000CC004C08B300220022088331E423A9
:100558008031230022082304031DE92A25008C1B6F
:10056800E92A20004F085004031DE92A5B035C04B4
:10057800031DE02A5230C70047082100A10030308F
:100588002000C70047082100A20030302000C70023
:1005980047082100A30031302000C7004708210088
:1005A800A400A1308631B026803125000C108C10B3
:1005B800F401F501F001F10101302000CF00003015
:1005C800D0000130DB000030DC00230022082304C7
:1005D800031D482B25008C1F482B20004F03500477
:1005E800031D482B5B035C04031D422B5230C700DC
:1005F80047082100A50030302000C7004708210027
:10060800A60030302000C70047082100A70032307C
:100618002000C70047082100A800A5308631B02671
:10062800803125000C1052302000C70047082100F7
:10063800A10031302000C70047082100A200303057
:100648002000C70047082100A30031302000C70060
:1006580047082100A400A1308631B026803125004A
:100668008C140130F4000030F500F001F1010B307A
:1006780020009700DC30960011101814CF01D0012B
:100688000130DB000030DC00230026082704031DAE
:10069800842B25008C1A842B20004D084E04031D42
:1006A800842B5B035C04031D7B2B5230C700470877
:1006B8002100A50030302000C70047082100A6000F
:1006C80030302000C70047082100A7003230200042
:1006D800C70047082100A800A5308631B026803120
:1006E80025000C108C10F401F501F001F101013026
:1006F8002000CD000030CE000130DB000030DC00EF
:10070800230026082704031D3E2925008C1E3E29A8
:1007180020004D034E04031D3E295B035C04031DAA
:10072800DD2B5230C70047082100A10030302000DF
:10073800C70047082100A20030302000C700470842
:100748002100A30031302000C70047082100A40081
:10075800A1308631B026803125008C10523020001F
:10076800C70047082100A50031302000C70047080E
:100778002100A60030302000C70047082100A7004C
:1007880032302000C70047082100A800A530863174
:10079800B026803125000C140130F4000030F5003B
:1007A800F001F1010B3020009700DC3096001110A9
:1007B8001814CD01CE010130DB000030DC003E29E9
:1007C8002000BC00C501C601C301C401C101C201AA
:1007D80054302E060319002DB601B7012F08D03E5C
:1007E800C300FF3003180030C4003C08B4003408CC
:1007F800BF002E08B4003408C0003F3085310E25F4
:10080800833120002708C2002608C1003008B40040
:100818003408BD003108B4003408BE003D308531CD
:100828000E25833120002708B7002608B6003208B5
:10083800D03EB800FF3003180030B9004208B500B8
:100848004108B400B435B50D3408FF3EBA00FF3096
:10085800353DBB003A35A03E860001308700380898
:10086800C03F3908C13F4208B5004108B400B4355B
:10087800B50DB435B50D3408FD3EC500FF30353D26
:10088800C6004730B4004508A03E860087013408FA
:1008980081000130C5070030C63D2F08B400450867
:1008A800A03E86008701340881000130C50700306A
:1008B800C63D3C08B4004508A03E860087013408C0
:1008C80081000130C5070030C63D2E08B400450838
:1008D800A03E8600870134088100FD30C507FF303F
:1008E800C63D31303306031D7E2C4508A03E8631B7
:1008F800B02683312000DB01DC01002D4408D00044
:100908004308CF0043034404031DB72C25000C10F3
:1009180047302000B40034082100A5003030200002
:10092800B40034082100A60030302000B400340898
:100938002100A70032302000B40034082100A800AC
:10094800A5308631B02625008C140130F400003023
:10095800F500F001F1010B3020009700DC30960023
:1009680011101814080025000C108C102000181005
:10097800F401F501F001F10108004408CE00430834
:10098800CD0043034404031DF62C25008C1047308A
:100998002000B40034082100A10030302000B40049
:1009A80034082100A20030302000B40034082100AF
:1009B800A30031302000B40034082100A400A13085
:1009C8008631B02625000C140130F4000030F50003
:1009D800F001F1010B3020009700DC309600111077
:1009E8001814080025000C108C1020001810F401B1
:1009F800F501F001F10108004208003A0319052D3C
:100A08000D2D4108013A0319822C033A0319C12C10
:100A18000D2D08002000AD002D088600870120302C
:100A28000106031D1C2D0130A8002808AD07102D54
:100A38002D0886008701093001060319172DAB011F
:100A4800AC01AA012D08860087012D300106031D7F
:100A5800322D0130A8002808AA07392D2D08860054
:100A680087012B300106031D3D2D0130A800280801
:100A7800AD072D08860087010108873127278531B2
:100A8800031C642D20002C08A1002B08A0000A30AC
:100A9800A2000030A3008631CD26853120002D0824
:100AA8008600870101082007A80021080318210AE9
:100AB800A9002808D03EAB00FF30293DAC00392DF5
:100AC80020002A080319742D2B09A8002C09A90055
:100AD800A80A0319A90A2808A6002908A7000800D7
:100AE8002C08A7002B08A600080024340034003482
:100AF800003400340034003400340034003400344E
:100B0800003400340034003400340034003400343D
:100B1800003400340034003400340034003400342D
:100B2800003400340034003400340034003400341D
:100B380000346134003400340034003400340034AC
:100B480000340034003400340034003400340034FD
:100B580000340034003400340034003400340034ED
:100B680000340034003400340034003400340034DD
:100B7800003400340034003400348F3486340034B8
:100B880000340034003400340034003400340034BD
:100B980000340034003400340034003400340034AD
:100BA800003400340034003400340034003400349D
:100BB800003400340034003400340034003400348D
:100BC800003400340034003400340034003400347D
:100BD800003400340034003400340034003400346D
:100BE800003400340034003400340034003400345D
:100BF800003400340034003400342000D301D40120
:100C08002108D6002008D5005608803AA4002308F9
:100C1800803A2402031D122E220855020318352E8D
:100C280020005508443E8600013087000108A400D2
:100C38005308203E860001308700240881000130D7
:100C4800D3070030D43D2330A4005508443E860025
:100C580001308700240881000130D5070030D63DD7
:100C6800082E2000D101D2010800543454345434E1
:100C7800543454345434543454345434543454342C
:100C8800543454345434543454345434543454341C
:100C9800543454345434543454345434543454340C
:100CA80054345434543454345434543454345434FC
:100CB8005434543454345434543454340034003494
:100CC8000034003400340034003400340034280088
:100CD8008D0129008D0128008C0126000C108C1034
:100CE8000C158C150C168C160C178C1724009001FB
:100CF8002300900124008F0123008F01FF30210081
:100D08008F0023008D0124008D0123008C01210018
:100D18000E138E1708003034303430343034303409
:100D2800303430343034303430343034303430349B
:100D3800303430343034303430343034303430348B
:100D4800303430343034303430343034303430347B
:100D580030343034303400342000A300A101A20123
:100D68000430210622040319080023009E1CB92E12
:100D78002000230886008701010823009A0001301B
:100D88002000A0002008A3070130A1070030A23DE1
:100D9800B42E2000A401A501201CD62E2208A407E9
:100DA8002308A53D0130A235A30D890BD72E0130AC
:100DB800A136A00C890BDC2E20082104031DD02E9F
:100DC8002508A1002408A0000800F700F801F9018F
:100DD8000430780679040319080023009E1CF12EBC
:100DE80077088600870101089A000130F600760826
:100DF800F7070130F8070030F93DEC2E2100911279
:100E080011120A3023009F0090309D0024309E006C
:100E1800A0309B0001309C008B170B172100911606
:100E280023009E169D170800303028009300940177
:100E380092019101200013102100131420001814AE
:100E48008B170B1708002000A100A0013A302102DF
:100E58000318342F30302102031C342FA001A00ABC
:100E6800200C080030302000980099019701960165
:100E780011102100111420001814080087310227CE
:100E88008731873136278731873118270800FE00D8
:100E980012001E00FE0B4C2F00346400800101314B
:0A0EA800890B522F0034013400348E
:020000040001F9
:04000E00A2C9FFDDA7
:00000001FF
