:040000008031AF2874
:100008007E14803120007F08FB002100111C5B2832
:100018002000111C5B2811107108803AFA0080300A
:100028007A02031D19286C307002031C4B28250026
:100038008C100C104730FA007A082100A1003030EB
:10004800FA007A08A2003030FA007A08A3003130AA
:10005800FA007A08A400A13087315F278031200098
:1000680018104730FA007A082100A5003030FA004D
:100078007A08A6003030FA007A08A7003230FA0071
:100088007A08A800A53087315F2780315B2874087B
:10009800750403195B287008013EF0000030713DBB
:1000A800F1000B3020009700DC3096001814200077
:1000B800911EAA2823009D1C6C281D121D162000C5
:1000C800111E6328463023009A002000111E69285B
:1000D80023001908FA007208443E860001308700A0
:1000E8007A088100253022004406031D9328013038
:1000F800F2070030F33D7308803AFA0080307A0244
:10010800031D882810307202031CAA28F201F3018B
:1001180001302000D9000030DA009112AA28F2013B
:10012800F30123001D121D162000111E98284630C9
:1001380023009A002000111E9E28523023009A00A6
:100148002000111EA428523023009A007B082000AA
:10015800FF007E1009008031B1288731CD2780311A
:10016800DB008731CE278031DC00AE30840086305A
:100178008500A03086000030870032308731C127E3
:100188008031EE30840085308500203086000130D3
:10019800870048308731C127803136308400863067
:1001A8008500A03086000130870040308731C127A4
:1001B8008031F001F101F201F301F401F5014D3054
:1001C8008400003085000E308731C7278031D23057
:1001D80084000030850018308731C7277E10200042
:1001E8008031F62829302000C8009630C7007F30BB
:1001F800890BFC28C70BFC28C80BFC282400A0018D
:10020800A101A201A301A401A501A601A701A801BA
:10021800A901AA01AB01B001B101AC01AD01AE0168
:10022800AF01B201B3018631E02680318731B827AA
:10023800803125008C100C1001302000D1000030D6
:10024800D2000130CF000030D0000130CD000030A6
:10025800CE0001302100D4000030D5002530200028
:10026800C70047082100A00040302000C700470809
:100278002100AA00200059035A04031DAD2AD90100
:10028800DA012400B001B101B201B3012530220026
:100298004406031D052A25304506031D052A40305E
:1002A8005206031D052A40305306031D052A200067
:1002B800D701D8015808803AC70080304702031D8B
:1002C8006729103057020318572A20005708443E60
:1002D80086000130870025300106031D8F29570845
:1002E800013E443E86000130870025300106031D8B
:1002F8008F29240030083104031D8F292000580855
:100308002400A900200057082400A8000130B000EC
:100318000030B100FF2920005708443E8600013014
:10032800870025300106031DB1295708013E443EC8
:1003380086000130870025300106031DB1292400FD
:1003480030033104031DB129200058082400AB00F4
:10035800200057082400AA00FF2920005708443E1F
:1003680086000130870040300106031DD829570850
:10037800013E443E86000130870040300106031DDF
:10038800D829240032083304031DD829200058082E
:100398002400AD00200057082400AC000130B20052
:1003A8000030B3000130FA2920005708443E860087
:1003B8000130870040300106031DFF295708013E20
:1003C800443E86000130870040300106031DFF29A6
:1003D800240032033304031DFF2920005808240099
:1003E800AF00200057082400AE0002302000D300E0
:1003F8000030D400572A01302000D7070030D83DFC
:100408005E2934302000C700F130890B092AC70B58
:10041800092A0032503023009A0006302000C70015
:100428003030890B152AC70B152A00004B302300E2
:100438009A0006302000C7003030890B212AC70BEC
:10044800212A0000F201F30123009D139D172000CB
:10045800D501D601D701D8015808803AC7008030A5
:100468004702031D392A0F3057020318542A233034
:100478002000C7005708443E86000130870047081F
:1004880081000130D7070030D83D5808803AC700AE
:1004980080304702031D522A0F305702031C3B2AA3
:1004A8002000D301D401200053035404031D6B2AF8
:1004B800240029082000A100240028082000A0000A
:1004C80024002D082000A30024002C087F2A0230D5
:1004D800200053065404031DAD2A24002B082000D5
:1004E800A10024002A082000A00024002F082000D2
:1004F800A30024002E082000A20086317626803131
:10050800220023082000C7004708AE002200240864
:100518002000C8004808AF00220025082000C900B4
:100528004908B000220026082000CA004A08B10085
:10053800220027082000CB004B08B2002200280820
:100548002000CC004C08B3002200220884314E243D
:100558008031230022082304031DE92A25008C1B6F
:10056800E92A200051085204031DE92A5B035C04B0
:10057800031DE02A5230C70047082100A10030308F
:100588002000C70047082100A20030302000C70023
:1005980047082100A30031302000C7004708210088
:1005A800A400A13087312627803125000C108C103B
:1005B800F401F501F001F10101302000D100003013
:1005C800D2000130DB000030DC00230022082304C5
:1005D800031D482B25008C1F482B20005103520473
:1005E800031D482B5B035C04031D422B5230C700DC
:1005F80047082100A50030302000C7004708210027
:10060800A60030302000C70047082100A70032307C
:100618002000C70047082100A800A53087312627F9
:10062800803125000C1052302000C70047082100F7
:10063800A10031302000C70047082100A200303057
:100648002000C70047082100A30031302000C70060
:1006580047082100A400A1308731262780312500D2
:100668008C140130F4000030F500F001F1010B307A
:1006780020009700DC30960011101814D101D20127
:100688000130DB000030DC00230026082704031DAE
:10069800842B25008C1A842B20004F085004031D3E
:1006A800842B5B035C04031D7B2B5230C700470877
:1006B8002100A50030302000C70047082100A6000F
:1006C80030302000C70047082100A7003230200042
:1006D800C70047082100A800A530873126278031A8
:1006E80025000C108C10F401F501F001F101013026
:1006F8002000CF000030D0000130DB000030DC00EB
:10070800230026082704031DE32B25008C1EE32B5A
:1007180020004F035004031DE32B5B035C04031DFF
:10072800DD2B5230C70047082100A10030302000DF
:10073800C70047082100A20030302000C700470842
:100748002100A30031302000C70047082100A40081
:10075800A13087312627803125008C1052302000A7
:10076800C70047082100A50031302000C70047080E
:100778002100A60030302000C70047082100A7004C
:1007880032302000C70047082100A800A530873173
:100798002627803125000C140130F4000030F500C4
:1007A800F001F1010B3020009700DC3096001110A9
:1007B8001814CF01D0010130DB000030DC00230029
:1007C8002A082B04031D192C25008C19192C20002C
:1007D8004D084E04031D192C5B035C04031D112CEA
:1007E8005230C70047082100A90030302000C70058
:1007F80047082100AA0030302000C7004708210020
:10080800AB0033302000C70047082100AC00A930F6
:1008180087312627803120008C110130CD0000302F
:10082800CE000130DB000030DC0023002A082B0456
:10083800031D3E2925008C1D3E2920004D034E0432
:10084800031D3E295B035C04031D472C5230C7007F
:1008580047082100A90031302000C70047082100BF
:10086800AA0030302000C70047082100AB00333011
:100878002000C70047082100AC00A930873126278F
:10088800803120008C15CD01CE010130DB00003015
:10089800DC003E292000BC00C501C601C301C4011B
:1008A800C101C20154302E060319722DB601B701D9
:1008B8002F08D03EC300FF3003180030C4003C08A6
:1008C800B4003408BF002E08B4003408C0003F301C
:1008D80085318325843120002708C2002608C100FD
:1008E8003008B4003408BD003108B4003408BE0034
:1008F8003D3085318325843120002708B70026083C
:10090800B6003208D03EB800FF3003180030B900F6
:100918004208B5004108B400B435B50D3408FF3EAF
:10092800BA00FF30353DBB003A35A03E86000130A5
:1009380087003808C03F3908C13F4208B500410860
:10094800B400B435B50DB435B50D3408FD3EC50059
:10095800FF30353DC6004730B4004508A03E86004C
:100968008701340881000130C5070030C63D2F08D3
:10097800B4004508A03E8600870134088100013094
:10098800C5070030C63D3C08B4004508A03E8600B7
:100998008701340881000130C5070030C63D2E08A4
:1009A800B4004508A03E8600870134088100FD3068
:1009B800C507FF30C63D31303306031DE82C450816
:1009C800A03E8731262784312000DB01DC01722D0F
:1009D8004408D2004308D10043034404031D212DD9
:1009E80025000C1047302000B40034082100A50071
:1009F80030302000B40034082100A6003030200038
:100A0800B40034082100A70032302000B4003408B4
:100A18002100A800A5308731262725008C14013035
:100A2800F4000030F500F001F1010B3020009700D0
:100A3800DC30960011101814080025000C108C10DA
:100A480020001810F401F501F001F1010800440834
:100A5800D0004308CF0043034404031D602D250044
:100A68008C1047302000B40034082100A100303039
:100A78002000B40034082100A20030302000B40067
:100A880034082100A30031302000B40034082100CC
:100A9800A400A1308731262725000C140130F4006A
:100AA8000030F500F001F1010B3020009700DC3038
:100AB800960011101814080025000C108C10200046
:100AC8001810F401F501F001F1010800431C6F2D25
:100AD80020008C15080020008C1108004208003AFC
:100AE8000319772D822D4108013A0319EC2C033A9A
:100AF80003192B2D013A03196A2D822D08002000B5
:100B0800AD002D088600870120300106031D912DB8
:100B18000130A8002808AD07852D2D08860087011B
:100B28000930010603198C2DAB01AC01AA012D086F
:100B3800860087012D300106031DA72D0130A8006E
:100B48002808AA07AE2D2D08860087012B3001063C
:100B5800031DB22D0130A8002808AD072D08860016
:100B68008701010887319D278531031CD92D200075
:100B78002C08A1002B08A0000A30A2000030A30016
:100B880087314327853120002D0886008701010819
:100B98002007A80021080318210AA9002808D03E28
:100BA800AB00FF30293DAC00AE2D20002A08031908
:100BB800E92D2B09A8002C09A900A80A0319A90ADC
:100BC8002808A6002908A70008002C08A7002B0859
:100BD800A600080024340034003400340034003403
:100BE800003400340034003400340034003400345D
:100BF800003400340034003400340034003400344D
:100C0800003400340034003400340034003400343C
:100C180000340034003400340034003461340034CB
:100C2800003400340034003400340034003400341C
:100C3800003400340034003400340034003400340C
:100C480000340034003400340034003400340034FC
:100C580000340034003400340034003400340034EC
:100C68000034003405348734003400340034003450
:100C780000340034003400340034003400340034CC
:100C880000340034003400340034003400340034BC
:100C980000340034003400340034003400340034AC
:100CA800003400340034003400340034003400349C
:100CB800003400340034003400340034003400348C
:100CC800003400340034003400340034003400347C
:100CD800003400340034003400340034003400346C
:100CE800003400342000D501D6012108D80020089E
:100CF800D7005808803AA4002308803A2402031D2C
:100D0800872E220857020318AA2E20005708443EAF
:100D18008600013087000108A4005508203E86009F
:100D280001308700240881000130D5070030D63D06
:100D38002330A4005708443E860001308700240869
:100D480081000130D7070030D83D7D2E2000D30127
:100D5800D40108005434543454345434543454347E
:100D6800543454345434543454345434543454343B
:100D7800543454345434543454345434543454342B
:100D8800543454345434543454345434543454341B
:100D9800543454345434543454345434543454340B
:100DA800543454345434003400340034003400349F
:100DB800003400340034003428008D0129008D01EE
:100DC80028008C0126000C108C100C158C150C16A4
:100DD8008C160C178C172400900123009001240016
:100DE8008F0123008F01FF3021008F0023008D0128
:100DF80024008D0123008C0121008C110E138E1705
:100E08000800303430343034303430343034303416
:100E180030343034303430343034303430343034AA
:100E2800303430343034303430343034303430349A
:100E3800303430343034303430343034303430348A
:100E4800303400342000A300A101A201043021069F
:100E580022040319080023009E1C2F2F20002308BA
:100E680086008701010823009A0001302000A000B5
:100E78002008A3070130A1070030A23D2A2F200037
:100E8800A401A501201C4C2F2208A4072308A53D76
:100E98000130A235A30D890B4D2F0130A136A00CCE
:100EA800890B522F20082104031D462F2508A10075
:100EB8002408A0000800F700F801F90104307806BA
:100EC80079040319080023009E1C672F7708860001
:100ED800870101089A000130F6007608F70701300B
:100EE800F8070030F93D622F2100911211120A30E3
:100EF80023009F0090309D0024309E00A0309B006E
:100F080001309C008B170B172100911623009E16A9
:100F18009D17080030302800930094019201910138
:100F28002000131021001314200018148B170B171E
:100F380008002000A100A0013A3021020318AA2FBE
:100F480030302102031CAA2FA001A00A200C08009F
:100F58003030200098009901970196011110210066
:100F68001114200018140800873178278731873139
:100F7800AC27873187318E270800FE0012001E003B
:100F8800FE0BC22F0034640080010131890BC82F89
:060F9800003401340034B6
:020000040001F9
:04000E00A2C9FFDDA7
:00000001FF
